:100000000C94C6360C94F7360C94F7360C94F736ED
:100010000C94F7360C94F7360C94F7360C94F736AC
:100020000C94F7360C94F7360C94F7360C94F7369C
:100030000C94F7360C94F7360C94F7360C94F7368C
:100040000C94F7360C94F7360C94F7360C94F7367C
:100050000C94F7360C94F7360C94F7360D942AB1BD
:100060000C94F7360D9486AB0D94D5AB0C94F73603
:100070000C94F7360C94F7360C94F7360C94F7364C
:100080000C94F7360C94F7360C94F7360C94F7363C
:100090000D943CAC0D948BAC0C94F7360D943C2431
:1000A0000C94F7360C94F7360C94F7360C94F7361C
:1000B0000C94F7360C94F7360C94F7360C94F7360C
:1000C0000C94F7360C94F7360C94F7360D94F2AC8A
:1000D0000D9441AD0C94F7360D94A8AD0D94F7AD89
:1000E0000C94F736084AD73B3BCE016E84BCBFFD6B
:1000F000C12F3D6C74319ABD56833DDA3D00C77FF8
:1001000011BED9E4BB4C3E916BAAAABE0000008090
:100110003F05A84CCDB2D44EB93836A9020C50B91F
:10012000918688083CA6AAAA2ABE000000803F0843
:10013000000000BE922449123EABAAAA2ABECDCC32
:10014000CC4C3E00000080BEABAAAAAA3E00000034
:1001500000BF000000803F0000000000084178D38D
:10016000BB4387D1133D190E3CC3BD4282AD2B3E2C
:1001700068EC8276BED98FE1A93E4C80EFFFBE01CC
:10018000C4FF7F3F00000000000664EC1B3C04BC81
:10019000163E3BE5B93CC93C37C29E5A3D660498C1
:1001A000083EEA69AAAA3E000000803F0763423683
:1001B000B79BD8A71A39685618AEBAAB558C1D3CF8
:1001C000B7CC5763BD6DEDFD753EF6177231BF00BC
:1001D0000000803F0D94B4B20D9444B30D941431DB
:1001E0000D94B5AC0D9409310D94A7350D94D71429
:1001F0000C946F810D9497360D94BF350D94A4A186
:100200000D94D7350C94973A0D945EAE0C944C3BFC
:100210000D94A1360D94A3370D9484A40D94C33589
:100220000D94CE200C941F4B0D9449A10D9448B30E
:100230000C942B8F0C94AC550D94652B0D94BCB283
:100240000D94B53D0C94917E0D941FAB0D9495A12A
:100250000D94F0200D94BFAC0D9456A10C94895BC5
:100260000D9486A10D94FFAB0D9450B30D94E12035
:100270000D944BA10D94FE300C94AD440C945E484B
:100280000D9459B30D945B360D946F1A0D9496220C
:100290000D9405A10D9421AE0D94CEA10D942A3696
:1002A0000D946CA10C94FDE90D94F3B20D94A2B2DF
:1002B0000D9463B30C9415550D94993A0D9483B332
:1002C0000D94291A0D94F1200D94E6350C946D5F70
:1002D0000D947EA10D949CA10D9420210D94F330DA
:1002E0000D94C7A80D94C7A10D94D0B20D9498B2E7
:1002F0000D94D5A80D942BA70D9478360D9409ACC8
:100300000C947CE50D9441A90D94E1140D946BAD12
:100310000D94ACB20D948AA10D947FB30D944CB39F
:100320000D94D5A10D9471B30D9414B10D94DAB25E
:100330000D94C7200D9470A10D9424A90C94223B18
:100340000D94CF350C94E8980D9411B30D946BB3C4
:100350000C94D7CE0C949E910C94953A0D942BA4AA
:100360000D947EB30C9489930C94A0E90D94C0A1D4
:100370000C94B49A0C94B88F0D94E0A10D9475B3BD
:100380000D9479B30D9417AA0D9445360D9452A18E
:100390000C94103B0C9482E50C941C3B0D94ABA187
:1003A0000D94DD350D94DA350D9412A90D94E9B252
:1003B0000D94B5350D9407B30D945DB30D94E7A876
:1003C0000D94B9A10D9404A90D944EA10C94575409
:1003D0000D943FAB0D9467B30D943EB30D945A3713
:1003E0000D9482A10D948EB20C94183B0D94C6B25C
:1003F0000C94A8E90C94118B0D9437AA0D94A0A12C
:100400000D9475AD0D94CC450D941F310D9467A3DB
:100410000D9489B20D94FDB20D941BB30D9481B26D
:100420000D9453B30D94D9A10C94FA8F0D942BAE67
:100430006E616E00696E660000407A10F35A00A08B
:10044000724E18090010A5D4E80000E8764817009D
:1004500000E40B54020000CA9A3B000000E1F505DD
:10046000000080969800000040420F000000A08627
:1004700001000000102700000000E8030000000059
:100480006400000000000A000000000001000000FD
:1004900000002C76D888DC674F0823DFC1DFAE5917
:1004A000E1B1B796E5E3E453C63AE651997696E8AA
:1004B000E6C28426EB898C9B62ED407C6FFCEFBC2E
:1004C0009C9F40F2BAA56FA5F490055A2AF75C9359
:1004D0006B6CF9676DC11BFCE0E40D47FEF520E68F
:1004E000B500D0ED902E0300943577050080841E72
:1004F000080000204E0A000000C80C333333330FCD
:10050000986E12831141EF8D2114893BE65516CF69
:10051000FEE6DB18D1844B381BF77C1D901DA4BB75
:10052000E424203284725E228100C9F124ECA1E52A
:100530003D275741524E202D2000207C7C2000205A
:100540007C2073702000207C20687020005741526E
:100550004E202D2000207C7C2000207C20737020E9
:1005600000207C20687020005741524E202D200032
:10057000207C7C2000207C2073702000207C206860
:100580007020005741524E202D2000207C7C2000FE
:10059000207C2073702000207C2068702000455251
:1005A000524F52202D2000207C7C2000207C207384
:1005B000702000207C20687020005741524E202D72
:1005C0002000207C7C2000207C2073702000207C78
:1005D00020687020004445425547202D2000207C93
:1005E0007C2000207C2073702000207C20687020FC
:1005F000005741524E202D2000207C7C2000207C82
:100600002073702000207C2068702000494E464FE7
:10061000202D2000207C7C2000207C207370200076
:10062000207C20687020004445425547202D200042
:10063000207C7C2000207C2073702000207C20689F
:10064000702000494E464F202D2000207C7C200049
:10065000207C2073702000207C2068702000455290
:10066000524F52202D2000207C7C2000207C2073C3
:10067000702000207C20687020005741524E202DB1
:100680002000207C7C2000207C2073702000207CB7
:1006900020687020004445425547202D2000207CD2
:1006A0007C2000207C2073702000207C206870203B
:1006B000004445425547202D2000207C7C2000200E
:1006C0007C2073702000207C2068702000464154FC
:1006D000414C202D2000207C7C2000207C20737049
:1006E0002000207C20687020004552524F52202D5F
:1006F0002000207C7C2000207C2073702000207C47
:100700002068702000494E464F202D2000207C7C20
:100710002000207C2073702000207C206870200046
:10072000494E464F202D2000207C7C2000207C203C
:1007300073702000207C206870200061707020653C
:1007400072726F7220756E726561636861626C654A
:1007500020636F6465207365745379734572726F9B
:1007600072202100617070206572726F7220756E48
:10077000726561636861626C6520636F6465207394
:1007800065745379734572726F72202100617070C5
:10079000206572726F7220756E7265616368616246
:1007A0006C6520636F64652073657453797345725B
:1007B000726F722021005741524E202D2000207C64
:1007C0007C2000207C2073702000207C206870201A
:1007D000005741524E202D2000207C7C2000207CA0
:1007E0002073702000207C206870200062616420EB
:1007F000636D64206172673A20007365743A20006B
:10080000207C20006172672076616C2061626F76C7
:1008100065206D61783A2000207C2000617267209D
:1008200076616C2062656C6F77206D696E3A20008E
:10083000616C7265616479207365743A200062614D
:100840006420636D64206172673A20007365743AB6
:100850002000207C20006172672076616C2061623C
:100860006F7665206D61783A2000207C20006172EF
:10087000672076616C2062656C6F77206D696E3AD7
:100880002000616C7265616479207365743A2000A0
:1008900062616420636D64206172673A2000736551
:1008A000743A2000207C20006172672076616C2001
:1008B00061626F7665206D61783A2000207C2000AF
:1008C0006172672076616C2062656C6F77206D695C
:1008D0006E3A2000616C7265616479207365743AC8
:1008E0002000494E464F202D2000207C7C200020F7
:1008F0007C2073702000207C2068702000494E46C8
:100900004F202D2000207C7C2000207C2073702034
:1009100000207C2068702000494E464F202D20008A
:10092000207C7C2000207C2073702000207C2068AC
:10093000702000494E464F202D2000207C7C200056
:10094000207C2073702000207C2068702000494E9D
:10095000464F202D2000207C7C2000207C207370BE
:100960002000207C2068702000494E464F202D201A
:1009700000207C7C2000207C2073702000207C20C4
:10098000687020003A2000207379734572726F728C
:10099000207C20003A2000207379734572726F72B8
:1009A000207C20003A2000207379734572726F72A8
:1009B000207C20003A2000207379734572726F7298
:1009C000207C20003A2000207379734572726F7288
:1009D000207C20003A2000207379734572726F7278
:1009E000207C20003A2000207379734572726F7268
:1009F000207C20003A2000207379734572726F7258
:100A0000207C20003A2000207379734572726F7247
:100A1000207C20003A2000207379734572726F7237
:100A2000207C20003A2000207379734572726F7227
:100A3000207C20003A2000207379734572726F7217
:100A4000207C20003A2000207379734572726F7207
:100A5000207C20003A2000207379734572726F72F7
:100A6000207C20003A2000207379734572726F72E7
:100A7000207C20003A2000207379734572726F72D7
:100A8000207C20003A2000207379734572726F72C7
:100A9000207C20003A2000207379734572726F72B7
:100AA000207C20003A2000202020003A2000202036
:100AB00020003A2000202020003A200020202000A2
:100AC0003A2000202020003A2000202020003A2058
:100AD00000202020003A2000202020003A20002082
:100AE0002020003A2000202020003A200020202052
:100AF000003A2000202020003A2000202020003A48
:100B00002000202020003A2000202020003A200051
:100B1000202020003A2000202020003A2000202021
:100B200020004445425547202D2000207C7C200099
:100B3000207C2073702000207C20687020004445B9
:100B4000425547202D2000207C7C2000207C2073F3
:100B5000702000207C20687020005741524E202DCC
:100B60002000207C7C2000207C2073702000207CD2
:100B700020687020004445425547202D2000207CED
:100B80007C2000207C2073702000207C2068702056
:100B9000004445425547202D2000207C7C20002029
:100BA0007C2073702000207C206870200045525209
:100BB0004F52202D2000207C7C2000207C20737050
:100BC0002000207C20687020004552524F52202D7A
:100BD0002000207C7C2000207C2073702000207C62
:100BE00020687020004552524F52202D2000207C5A
:100BF0007C2000207C2073702000207C20687020E6
:100C0000004445425547202D2000207C7C200020B8
:100C10007C2073702000207C2068702000494E46A4
:100C20004F202D2000207C7C2000207C2073702011
:100C300000207C20687020005741524E202D20005B
:100C4000207C7C2000207C2073702000207C206889
:100C50007020004552524F52202D2000207C7C20D5
:100C600000207C2073702000207C206870200046CB
:100C70004154414C202D2000207C7C2000207C20F1
:100C800073702000207C2068702000444542554746
:100C9000202D2000207C7C2000207C2073702000F0
:100CA000207C20687020004445425547202D2000BC
:100CB000207C7C2000207C2073702000207C206819
:100CC0007020004445425547202D2000207C7C2088
:100CD00000207C2073702000207C2068702000574A
:100CE00041524E202D2000207C7C2000207C20734F
:100CF000702000207C20687020005741524E202D2B
:100D00002000207C7C2000207C2073702000207C30
:100D100020687020004552524F52202D2000207C28
:100D20007C2000207C2073702000207C20687020B4
:100D3000005265636F76657265642066726F6D2020
:100D40005353542072656164206661696C0053449A
:100D5000206361726420696E73657274696F6E20BE
:100D60006465746563746564203D3E207265626FDE
:100D70006F742E0053442063617264207374696C35
:100D80006C206661696C696E672E00534420636154
:100D90007264206661696C75726521007475726E8B
:100DA000696E672073797374656D206F6E2E0070A5
:100DB0006F7765726564206F66662063686172672D
:100DC000696E67206D6F64650066696C6520736984
:100DD0007A652065786365656465642043422120F7
:100DE00073697A653A20256C752074696D653A20BF
:100DF000256C75206E657749643A202575002A2A8E
:100E00002A2A2A2A2A2A2A2A2A2A2A2A2A2A2A2A42
:100E10002A2A2A2A2A2A2A00434D4420696E746508
:100E2000726661636520696E697469616C697A656F
:100E3000642C2074797065202768656C70270053D6
:100E4000706F7474657220736574757020636F6D54
:100E5000706C6574652E004E6F20737461727475CA
:100E600070206572726F7273005374617274757062
:100E70002073797374656D206572726F72733A2096
:100E800000496E76616C6964204F50204D4F444597
:100E90003A2000494E56414C4944210053454C46A6
:100EA00020544553540052414D2046414C4C424140
:100EB000434B00545241434B494E470049444C4533
:100EC0000052554E004C6F61646564204F50204DB8
:100ED0004F44453A20004C6F61646564204F5020B8
:100EE0004D4F44453A200073656C662074657374F9
:100EF00020656E61626C65642E20626567696E6E46
:100F0000696E672073656C66207465737400456E46
:100F100067696E65526F6F6D2073657475702066BA
:100F200061696C65643A20202575005265636F76AF
:100F3000657265642066726F6D20456E67696E65C7
:100F4000526F6F6D206661696C757265202D20721D
:100F500065736574733A20257500456E67696E6523
:100F6000526F6F6D20696E6974205355434345532A
:100F7000532E00456E67696E65526F6F6D20666116
:100F8000696C20726573657420636F756E743A20A6
:100F90002575004D6573736167652053656E6465E3
:100FA0007220696E697469616C697A65642E0045A6
:100FB00072726F7220696E697469616C697A696EA8
:100FC00067204D6573736167652053656E64657254
:100FD00021005265636F76657265642066726F6D7D
:100FE0002045787465726E616C2048617264776127
:100FF0007265206661696C757265202D207265735B
:1010000065743A20257500657874206877206661DC
:10101000696C20726573657420636F756E743A2015
:10102000257500427269646765436D642066616975
:101030006C656420746F20696E6974210042726966
:101040006467654D444D65737361676553656E6490
:101050006572206661696C656420746F20696E69D1
:1010600074210049646C65206D6F6465202D2064D7
:10107000697361626C696E672065787465726E6110
:101080006C2052414D0045787465726E616C20523F
:10109000414D204661696C65642120456E7465721E
:1010A000696E67206661696C73616665206D6F6447
:1010B0006521004578742052414D20746573743A5F
:1010C000204641494C454421004578742052414D09
:1010D00020746573743A2073756363656564656431
:1010E0000048656170207465737420616C6C6F6377
:1010F0006174696F6E206661696C65642046414960
:101100004C4544213A2025305800465F4D41583A1D
:101110002000465F4D494E3A20004D41494E5F4404
:1011200045434B5F48575F56455253494F4E3A200F
:10113000005354524943545F4E4D45413A20004DAF
:101140004553534147455F51554555455F4C454EC5
:101150003A20004D41585F4D4553534147455F4C40
:10116000454E5F534D3A202575004D41585F4D4522
:1011700053534147455F4C454E5F42415349433AC3
:1011800020004D41585F4D4553534147455F4C4505
:101190004E5F46554C4C3A20005350494B455F47F3
:1011A0005F54483A20004D41585F53414D504C45E3
:1011B0005F4741505F533A20004669726D77617214
:1011C00065205348413A202530386C5800557067E7
:1011D00072616465642066726F6D204669726D7716
:1011E000617265205348413A202530386C5820748C
:1011F0006F202530386C5800446576696365204956
:10120000643A20256C7500726573657420736F7580
:101210007263653A200073657373696F6E20696449
:101220003A20006C6F7374206578742052414D2011
:10123000706F77657220636F6E74726F6C210065DA
:1012400078742072616D206661696C2072657365C7
:101250007420636F756E743A2025750053442052D4
:10126000572074657374206661696C65642100534E
:1012700044206469726563746F7279207365747554
:1012800070206661696C656421005344204361727B
:101290006420696E6974206661696C65642100531D
:1012A000442043617264206E6F74207072657365B0
:1012B0006E7421005265636F766572656420667294
:1012C0006F6D205344206661696C757265202D2016
:1012D0007265736574733A20257500534420436129
:1012E000726420696E6974205355434345535321FA
:1012F000005344206661696C2072657365742063D5
:101300006F756E743A20257500496E697469616C59
:10131000697A696E6720534420436172642E2E2ED1
:1013200000257520656E63206269747300535953FC
:1013300054454D20434F4E464947533A0073797305
:10134000204572726F722062797465733A20256449
:101350000053657373696F6E2049443A2025640019
:101360004D61696E204465636B2048572056657255
:1013700073696F6E3A202564004578742052414DA0
:1013800020737461727465642E002E62737320651D
:101390006E643A20006C6F7374206578742052413B
:1013A0004D20706F77657220636F6E74726F6C2161
:1013B00000436F6E74726F6C6C657220696E697435
:1013C00069616C697A65642E00696E7465726E611C
:1013D0006C207764742E007265736574207369677E
:1013E0006E616C2E00706F776572206F6E2E0053E9
:1013F00074617274757020736F757263653A200042
:101400003D3D3D3D3D3D3D3D3D3D3D3D3D3D3D3D0C
:101410003D3D3D3D3D3D3D3D3D3D3D3D3D3D3D0039
:10142000496E697469616C697A696E672053706F7F
:101430007474657220312E30003D3D3D3D3D3D3D93
:101440003D3D3D3D3D3D3D3D3D3D3D3D3D3D3D3DCC
:101450003D3D3D3D3D3D3D3D000062726964676537
:101460002048423A20256C75005375626D6974748A
:10147000696E672025752062797465202F20257597
:101480002062697420534D43206D657373616765F5
:101490003A200053656E64696E6720536D49726926
:1014A0006469756D204D6573736167653A202530F9
:1014B000325800427269646765206661696C6564D0
:1014C00020746F2041434B2065706F6368207570F6
:1014D0006461746500427269646765207265636F58
:1014E00076657265642066726F6D206E6F74204140
:1014F000434B696E672065706F63682074696D6522
:101500000053656C6620746573742074696D65643E
:10151000206F757400496E76616C69642074657320
:1015200074206D6F64652E205265737461727469E6
:101530006E672073797374656D005375626D69749D
:1015400074696E672073656C662074657374206DB2
:101550006573736167653A007364546573743A2008
:101560002575007369676E616C546573743A202544
:1015700075006164646564206368756E6B20257511
:1015800020746F206C697374006368756E6B5F0004
:10159000736B6970706564206368756E6B00686951
:1015A00074203135302073616D706C65730070721A
:1015B0006F6365737365642073616D706C6520255E
:1015C000640073656C662074657374207573696E4E
:1015D000672074696D652073657269657300526573
:1015E00061636865642073656C662074657374203C
:1015F000617474656D7074206C696D69742E20441B
:10160000697361626C696E672073656C66207465CE
:1016100073742E0053656C66207465737420617456
:1016200074656D707420636F756E74200062696EEE
:10163000735F7374645F7374640062696E735F6D6B
:1016400065616E5F7374640062696E735F6E756D61
:101650004368756E6B730062696E735F636E6F00D3
:101660006D656469616E5F636E6F2C2575006570D2
:101670006F63685F656E642C256C750065706F63C1
:10168000685F73746172742C256C75006174746585
:101690006D7074732C25750073645F746573745F6B
:1016A0007061737365642C2575007369675F746579
:1016B00073745F7061737365642C2575006C6F675C
:1016C00067696E67207369676E616C20646174611D
:1016D00020746F20736420636172640020202047AF
:1016E000657474696E672062696E2073746400208B
:1016F000202047657474696E672062696E206D658D
:10170000616E004372656174696E672062696E2064
:1017100025640053656C66207465737420756E7360
:1017200075636365737366756C00446964206E6FDE
:10173000742064656C6574652066696C65732062ED
:10174000656361757365206F6E65206F66207468D0
:10175000652073656C6620746573747320666169B7
:101760006C65640053656C662074657374206D65E8
:1017700073736167652073656E6420737563636559
:10178000737366756C2E2052657475726E696E6720
:1017900020746F206E6F726D616C206F7065726166
:1017A00074696F6E00436C6561726564206D65736A
:1017B0007361676520686561646572207761736E27
:1017C00027742073656C6620746573742074797057
:1017D000653A20255800646174615F747970652CE6
:1017E000636E6F5F6D61785F6D65616E2C656C65B2
:1017F000765F7374646576286D290052616D20668A
:10180000616C6C6261636B0020626974206D65734A
:10181000736167653A0020627974652C0053656EC8
:1018200064696E670066696E6973686564207472C6
:1018300061636B206D657373616765206D3A202568
:101840007520743A20256C75002065706F63685FA1
:1018500074696D653A20004750532073616D706C58
:1018600065202D20696E6465783A2000456E7465A8
:1018700072696E6720545241434B494E47206D6F49
:1018800064650053657474696E67207570205452E6
:1018900041434B494E47206D6F6465004C6F67674D
:1018A000696E6720706F77657220646174612E00C5
:1018B00044697361626C696E672047505320756E8E
:1018C00074696C206D696C6C6973203D20256C75A2
:1018D000005375626D697474696E672025752062A6
:1018E000797465202F20257520626974206D6573D9
:1018F000736167653A200046696E697368656420A4
:10190000636F6C6C656374696F6E20666F72206DB7
:101910003A20256C7520696E20256C750053756220
:101920006D697474696E67206D3A20256C7520703E
:101930006172743A20257520626974733A202575A6
:101940000050726F63657373696E6720636F6D70AB
:101950006C65746520666F7220737461743A200040
:1019600050726F63657373696E672073746174730B
:10197000206D3A20256C7520743A20257520653A33
:1019800020257500537461742025752074696D6578
:101990006F757420617420256C752E253032257585
:1019A000207374617274656420617420256C750005
:1019B0004661696C656420636F7079696E67206247
:1019C0007566666572206D3A20256C7520743A2024
:1019D000257520653A202575004661696C6564208F
:1019E000616E616C797A696E672062756666657290
:1019F000206D3A20256C7520743A20257520653AB3
:101A000020257500436F6D706C6574656420616E90
:101A1000616C79736973206D3A20256C7520743A76
:101A200020257520653A202575005374617274690C
:101A30006E6720616E616C79736973206D3A202541
:101A40006C7520743A20257520653A20257500456F
:101A5000787465726E616C2052414D207265636FBF
:101A6000766572656420647572696E6720616E6167
:101A70006C797369730045787465726E616C20527D
:101A8000414D206661696C75726520647572696E7E
:101A90006720616E616C79736973210053746172A0
:101AA00074696E6720636F6C6C656374696F6E2018
:101AB0006D3A20256C7520743A20257520617420BC
:101AC000256C752E253032750042617369630050B4
:101AD0006172746974696F6E0046756C6C2045782C
:101AE00074656E6465640046756C6C00456E746563
:101AF00072696E672052554E206D6F6465202D20EF
:101B00005761766573200053657474696E6720753C
:101B1000702052554E206D6F646500496E76616C81
:101B2000696420434B20636173650049646C6520E0
:101B3000434B2073656E64206661696C656400497F
:101B4000646C6520434B0049646C6520434B2069FD
:101B50006E6974206661696C6564005374617274A7
:101B60002069646C6520434B2066697800496E6982
:101B7000742069646C6520434B0049646C652043A4
:101B80004B206D617820544F00477073536967454F
:101B90007272206368616E67656420746F204E4FB7
:101BA0005F4552520047505320416E74656E6E611E
:101BB000207265636F6E6E65637465640047505391
:101BC00020616E74656E6E6120646973636F6E6E02
:101BD0006563746564212047707353696745727249
:101BE000206368616E67656420746F204E4F5F41AB
:101BF0004E5400456E746572696E67202553206DE2
:101C00006F646500417474656D7074696E672063FC
:101C10006865636B20696E206174206D696C6C6906
:101C200073203D20256C750053657474696E6720C0
:101C30007570202553206D6F64650049444C450044
:101C40004465706C6F796D656E7400536F6C617272
:101C50002056206F7665722D766F6C7461676521F2
:101C60003A2000536F6C61722056204C4F573A2037
:101C700000536F6C6172205620636865636B20703F
:101C800061737365643A200053616D706C652071F7
:101C900075657565206572726F723A2030780053F1
:101CA000616D706C6520616464206661696C656457
:101CB000202D20726573657474696E672071756577
:101CC0007565210030002E0066696C746572206FA6
:101CD0006E6C7920006D3A20256C75207C20743A5A
:101CE000202575207C20653A202575207C20733ABC
:101CF000202564207C20743A20256C752E253032F6
:101D00007500666368696C6C20004770735369677F
:101D1000457272206368616E67656420746F204E3F
:101D20004F5F534947006E6F2047505320666978D4
:101D300000477073536967457272206368616E670C
:101D4000656420746F204E4F5F4552520065787471
:101D500065726E616C2052414D207265636F7665CD
:101D600072656420647572696E672073616D706C52
:101D7000650065787465726E616C2052414D206615
:101D8000616975726520647572696E672073616D33
:101D9000706C650047505320416E74656E6E612013
:101DA0007265636F6E6E656374656400475053209F
:101DB000616E74656E6E6120646973636F6E6E65CB
:101DC000637465642120477073536967457272209C
:101DD0006368616E67656420746F204E4F5F414E8B
:101DE00054004C6F737420475053207369676E61C1
:101DF0006C2E204770735369674572722063686167
:101E00006E67656420746F204E4F5F5349470047EB
:101E100070734E6F5369672066616C6C6261636BAF
:101E2000004770734E6F5369672066616C6C626126
:101E3000636B207472696767657265642E205365F1
:101E40006E64696E6720636F6E666967206D657387
:101E5000736167650057616B696E67207570204715
:101E6000505300496E697469616C697A696E6720C4
:101E700051756575657320616E642046696C746583
:101E800072732E004572726F7220696E6974696197
:101E90006C697A696E67204461746120416E616C7F
:101EA000797A657221004461746120416E616C79B8
:101EB0007A657220696E697469616C697A65642EED
:101EC000004750532053616D706C652046696C74F7
:101ED000657220696E697469616C697A65642E0047
:101EE0004572726F7220696E697469616C697A6992
:101EF0006E67204750532053616D706C65204669B2
:101F00006C746572210047505320616E74656E6E6B
:101F10006120646973636F6E6E656374656421200C
:101F2000477073536967457272206368616E6765B5
:101F30006420746F204E4F5F414E54004750532031
:101F4000696E697469616C697A65642E00526563B3
:101F50006F76657265642066726F6D2047505320FE
:101F60006661696C757265202D2072657365747386
:101F70003A2025750047505320696E6974206661C8
:101F8000696C6564213A2000475053206661696C92
:101F900020726573657420636F756E743A202575C1
:101FA00000496E697469616C697A696E672047508F
:101FB00053004972696469756D20696E697469615D
:101FC0006C697A65642E006163746976655F736518
:101FD000747570206972696469756D2062656769DE
:101FE0006E206661696C65642E004972696469756A
:101FF0006D20696E6974204641494C4544213A2060
:10200000004972696469756D206661696C2072654A
:1020100073657420636F756E743A20257500496E80
:10202000697469616C697A696E672049726964696B
:10203000756D0072656D6F746520636F6E6669679C
:1020400020696E2073796E632E0052656D6F746522
:1020500020636F6E666967206F7574206F662073EA
:10206000796E63202D20707265706172696E6720D1
:10207000636F6E666967206D6573736167650043A2
:102080006F756C64206E6F7420726574726965760A
:102090006520494D4549210053657474696E672078
:1020A00064657669636520696420746F20256C75AA
:1020B0000044657669636520696420256C75206439
:1020C0006F6573206E6F74206D6174636820494D75
:1020D00045495F696420256C7500696D65693A2022
:1020E000257300526573657474696E67207361743B
:1020F000656C6C697465206D6F64756C652E004746
:102100005053206D6F64756C65206661696C206644
:10211000616C6C6261636B2074726967676572657C
:1021200064006D6178206770732072657365742038
:10213000636F756E742065786365656465642E20D1
:1021400073656E64696E67206972696469756D2074
:102150006D7367004750532066616C6C6261636BFE
:1021600020726573657420747269676765722100F7
:10217000636F6E6669672073796E630052656D6F79
:10218000746520636F6E666967206F7574206F6673
:102190002073796E63005375626D6974206661699E
:1021A0006C6564202D207363686564756C696E6767
:1021B000207265747279007375626D697474696EEA
:1021C00067206D6573736167653A202575206279B4
:1021D0007465202F20257520626974206D657373E6
:1021E000736167653A200049646C652063686563C4
:1021F0006B20696E2051206F76657272756E2E208D
:102200005265626F6F74696E672E0049646C652059
:10221000636865636B20696E2073756363657373B0
:1022200066756C00436C6561726564206D657373DF
:1022300061676520686561646572207761736E27E8
:102240007420636F6E66696720747970653A202523
:102250005800636F6E6669672073796E63206661EC
:10226000696C202D207363686564756C65207265E8
:102270007472792E00436F6E6669672073796E639E
:10228000207375636365737366756C2E00436C65AC
:1022900061726564206D657373616765206865614F
:1022A000646572207761736E277420636F6E666950
:1022B0006720747970653A202558006D6178207226
:1022C000616D20726573657420636F756E7420652F
:1022D00078636565646564210052414D20666169DB
:1022E0006C2072657365742074726967676572210A
:1022F00000496E632073657373696F6E496420745F
:102300006F200043757272656E74206D6F64652076
:10231000696E76616C6964212053776974636869BA
:102320006E6720746F2052554E210048616C6C20FE
:102330007472696767657220737769746368207463
:102340006F2052554E206D6F64652E0048616C6C95
:102350002074726967676572207377697463682097
:10236000746F2049444C45206D6F64652E004368AE
:10237000617267696E67206572726F722120626197
:102380007474563A20252E3266004E656761746972
:1023900076652063757272656E742063686172671A
:1023A000696E67206572726F722120626174744970
:1023B0003A20252E32660053656E7420693A202536
:1023C00075207C2025752072656D61696E696E6768
:1023D00020696E20510053656E64696E672051203C
:1023E000696E6465783A20256C642069643A20251A
:1023F00075006D2025752041434B20544F2C20251E
:10240000752072656D61696E696E6720696E205115
:10241000004572726F72207375626D697474696EB3
:1024200067206D65737361676520746F20512100AB
:102430004572726F722073657474696E67206D6582
:102440007373616765206461746121002575206D77
:1024500073677320696E2051006D20257520737598
:102460006220746F2051206174206920256C6420E3
:10247000636F756E743A202575002575206D73673E
:102480007320696E2051006D2025752073756220C0
:10249000746F2051206174206920256C6420636F63
:1024A000756E743A202575004D65737361676520FC
:1024B0006174205120696E64657820256C64206306
:1024C0006F756E745F69643A2025752077696C6C4E
:1024D000206265206F7665727772697474656E002C
:1024E0004D65737361676520512066756C6C3A2089
:1024F0007375626D697373696F6E2072656A656367
:10250000746564210043616E2774207375626D6980
:10251000743A2051206E6F7420696E697469616C21
:10252000697A65642100097C0900202020200009C7
:102530007C09002020202000097C09002020202088
:1025400000097C09002020202000097C09002020AF
:10255000202000097C09002020202000097C09009F
:102560002020202000097C09002020202000097C58
:1025700009002020202000097C09002020202000C4
:10258000097C09002020202000097C09002020204F
:102590002000097C09002020202000097C0900205F
:1025A00020202000097C09002020202000097C092F
:1025B000002020202000097C090020202020000984
:1025C0007C09002020202000097C090020202020F8
:1025D00000097C09002020202000097C090020201F
:1025E000202000097C09002020202000097C09000F
:1025F0002020202000097C09002020202000097CC8
:1026000009002020202000097C0900202020200033
:10261000097C09002020202000097C0900202020BE
:102620002000097C09002020202000097C090020CE
:1026300020202000097C09002020202000097C099E
:10264000002020202000097C0900202020200009F3
:102650007C090020202020004E6F20636F6E666989
:102660006720636D64206D61746368202D200020F5
:102670002D200063666720636D64206D617463685C
:102680003A2000202D200063666720636D64206D72
:10269000617463683A2000202D2000636667206320
:1026A0006D64206D617463683A2000202D20006302
:1026B000666720636D64206D617463683A20002052
:1026C0002D200063666720636D64206D617463680C
:1026D0003A2000202D200063666720636D64206D22
:1026E000617463683A2000202D20006366672063D0
:1026F0006D64206D617463683A2000202D200063B2
:10270000666720636D64206D617463683A20002001
:102710002D200063666720636D64206D61746368BB
:102720003A2000202D200063666720636D64206DD1
:10273000617463683A2000202D200063666720637F
:102740006D64206D617463683A2000202D20006361
:10275000666720636D64206D617463683A200020B1
:102760002D200063666720636D64206D617463686B
:102770003A2000202D200063666720636D64206D81
:10278000617463683A2000202D200063666720632F
:102790006D64206D617463683A2000202D20006311
:1027A000666720636D64206D617463683A20002061
:1027B0002D200063666720636D64206D617463681B
:1027C0003A2000202D200063666720636D64206D31
:1027D000617463683A2000202D20006366672063DF
:1027E0006D64206D617463683A2000202D200063C1
:1027F000666720636D64206D617463683A20002011
:102800002D200063666720636D64206D61746368CA
:102810003A2000202D200063666720636D64206DE0
:10282000617463683A2000202D200063666720638E
:102830006D64206D617463683A2000202D20006370
:10284000666720636D64206D617463683A200020C0
:102850002D200063666720636D64206D617463687A
:102860003A2000202D200063666720636D64206D90
:10287000617463683A2000202D200063666720633E
:102880006D64206D617463683A2000202D20006320
:10289000666720636D64206D617463683A20002070
:1028A0002D200063666720636D64206D617463682A
:1028B0003A2000202D200063666720636D64206D40
:1028C000617463683A2000202D20006366672063EE
:1028D0006D64206D617463683A2000202D200063D0
:1028E000666720636D64206D617463683A20002020
:1028F0002D200063666720636D64206D61746368DA
:102900003A2000202D200063666720636D64206DEF
:10291000617463683A20003A200020737973436F32
:102920006E666967207C20003A200020737973432B
:102930006F6E666967207C20003A200020737973EF
:10294000436F6E666967207C20003A20002073790F
:1029500073436F6E666967207C20003A2000207305
:102960007973436F6E666967207C20003A200020EF
:10297000737973436F6E666967207C20003A20008C
:1029800020737973436F6E666967207C20003A205C
:102990000020737973436F6E666967207C20003A6C
:1029A000200020737973436F6E666967207C200076
:1029B0003A200020737973436F6E666967207C202C
:1029C000003A200020737973436F6E666967207C3C
:1029D00020003A200020737973436F6E6669672088
:1029E0007C20003A200020737973436F6E6669671C
:1029F000207C20003A200020737973436F6E666953
:102A000067207C20003A200020737973436F6E6644
:102A10006967207C20003A200020737973436F6E31
:102A2000666967207C20003A200020737973436F29
:102A30006E666967207C20003A200020737973431A
:102A40006F6E666967207C20003A200020737973DE
:102A5000436F6E666967207C20003A2000207379FE
:102A600073436F6E666967207C20003A20002073F4
:102A70007973436F6E666967207C20003A200020DE
:102A8000737973436F6E666967207C20003A20007B
:102A900020737973436F6E666967207C20003A204B
:102AA0000020737973436F6E666967207C20003A5B
:102AB000200020737973436F6E666967207C200065
:102AC0003A200020737973436F6E666967207C201B
:102AD000003A200020737973436F6E666967207C2B
:102AE00020003A200020737973436F6E6669672077
:102AF0007C20003A200020737973436F6E6669670B
:102B0000207C20003A200020737973436F6E666941
:102B100067207C20003A200020737973436F6E6633
:102B20006967207C20003A200020737973436F6E20
:102B3000666967207C20003A200020737973436F18
:102B40006E666967207C20003A2000207379734309
:102B50006F6E666967207C20003A200020202000EC
:102B60003A2000202020003A2000202020003A2097
:102B700000202020003A2000202020003A200020C1
:102B80002020003A2000202020003A200020202091
:102B9000003A2000202020003A2000202020003A87
:102BA0002000202020003A2000202020003A200091
:102BB000202020003A2000202020003A2000202061
:102BC00020003A2000202020003A20002020200071
:102BD0003A2000202020003A2000202020003A2027
:102BE00000202020003A2000202020003A20002051
:102BF0002020003A2000202020003A200020202021
:102C0000003A2000202020003A2000202020003A16
:102C10002000202020003A2000202020003A200020
:102C2000202020003A2000202020003A20002020F0
:102C300020003A2000202020003A20002020200000
:102C40003A2000202020006C7364006C6F672073B2
:102C50006D646174612073640062656E0062726904
:102C600064676520656E61626C6500696370006908
:102C7000646C6520636865636B696E20706572695A
:102C80006F64006773650067707320736C656570AF
:102C900020656E61626C65007074620070617274B0
:102CA0006974696F6E207468726573682062696EFA
:102CB000006E736100737374206E2073616D706CAD
:102CC000657320746F20617667007373700073738F
:102CD000742073616D706C696E6720706572696FC6
:102CE000640078726D0065787465726E616C20683E
:102CF00061726477617265207265736574206D61BD
:102D000078006C7373006C6F672073737420736446
:102D100000766C6500766973206C656420656E6171
:102D2000626C650074726D0073656C662074657307
:102D300074207265736574206D617800737474001B
:102D400073656C662074657374006E7362006D65E4
:102D500073736167652073616D706C657320626168
:102D6000736963006C626E006C6F672062696E202D
:102D70007364006C6731006C6F6720676D6E203183
:102D8000730067706C0067707320706F77657220D6
:102D90006C766C006D6D66006D696E206D65737389
:102DA0006167657320706572696F642066756C6C0D
:102DB000006D6D62006D696E206D6573736167658E
:102DC0007320706572696F64206261736963006C5F
:102DD000676D006C6F6720676D6E2073640073749D
:102DE0006D0073746174697374696373206D6F64CB
:102DF00065006C6D65006C6F67206D65737361674E
:102E000065207364006C6472006C6F672064726587
:102E1000207364006C7361006C6F6720737065636E
:102E200061207364006C7370006C6F672073706551
:102E300063207364006C6666006C6F67206666745E
:102E4000207364006C6972006C6F6720697269643A
:102E5000207364006C6E6D006C6F67206E6D656131
:102E6000207364006C7077006C6F6720706F772040
:102E70007364006C6C6700677073206C6F67206C04
:102E8000766C006C6770006C6F67206770732073DE
:102E900064006C6674006C6F672066696C742073E4
:102EA00064006C70640070726F64206C6F67206DDA
:102EB0006F64650077646500776420656E61626C9D
:102EC000650073726D007364207265736574206DA4
:102ED0006178004272696467650053737453657466
:102EE0007570004972696469756D426567696E0045
:102EF0004972696469756D5369676E616C004770EA
:102F0000735369676E616C00427573490042757353
:102F10005600426174745600536F6C5600506F77C0
:102F200065724D6F6E0043686172676572536574B8
:102F300075700053656E64657253657475700041F9
:102F40006E616C797A657253657475700046696C50
:102F50007453657475700052616D536574757000BB
:102F6000477073536574757000536452756E0053E7
:102F70006453657475700025303258000025303276
:102F8000580020626974206D657373616765206203
:102F900075696C742E000A0020000025303258003C
:102FA0000030003078000A00200000253032580040
:102FB0000A0020000025303258002D002D000A00A4
:102FC00020000025303258000030003078000030FA
:102FD000003078000A0020000025303258002062BE
:102FE0006974206D657373616765206275696C74BF
:102FF0002E0000253032580020626974206D657300
:1030000073616765206275696C742E00626F6F6C06
:10301000206E6962626C6573206D61782031206278
:103020006974732E00626F6F6C206E6962626C65EA
:103030007320646F6E277420737570706F727420C4
:103040006D756C7469706C696572732E00666C6F57
:103050006174206E6962626C6573206D61782033E3
:103060003220626974732E0075696E743332206E7B
:103070006962626C6573206D617820333220626909
:1030800074732E0075696E743332206E6962626CDF
:10309000657320646F6E277420737570706F72741F
:1030A000206D756C7469706C696572732E0075693A
:1030B0006E743136206E6962626C6573206D617862
:1030C00020313620626974732E0075696E74313652
:1030D000206E6962626C657320646F6E2774207362
:1030E0007570706F7274206D756C7469706C696541
:1030F00072732E0075696E7438206E6962626C6539
:1031000073206D6178203820626974732E007569B0
:103110006E7438206E6962626C657320646F6E270E
:103120007420737570706F7274206D756C74697033
:103130006C696572732E006D6573736167652062DB
:103140007566666572206F76657272756E21006DA8
:1031500065737361676520627566666572206F7658
:10316000657272756E21006E6F20646174612062F9
:1031700069747320746F20617070656E6420746F61
:10318000206D657373616765002000300030780042
:1031900020003000307800200030006D696C6C69D0
:1031A000732C6865616465722C4750535F45706F7E
:1031B00063685F54696D652873292C626174745665
:1031C0002C62617474502C736F6C6172562C737422
:1031D000617475732C74656D702C68756D2C6C61E1
:1031E00074735F302C6C61745F302C6C61746D5F34
:1031F000302C6C6F6E735F302C6C6F6E5F302C6C8C
:103200006F6E6D5F302C656E636F6465645F6461C3
:103210007461006D696C6C69732C686561646572BA
:103220002C4750535F45706F63685F54696D652824
:1032300073292C62617474562C62617474502C73FF
:103240006F6C6172562C7374617475732C74656D38
:10325000702C68756D2C6C6174735F302C6C6174AC
:103260005F302C6C61746D5F302C6C6F6E735F30EF
:103270002C6C6F6E5F302C6C6F6E6D5F302C6E5FE0
:1032800073656E736F72732C73616D706C655F69BB
:103290006E74657276616C2C73756273616D706C9F
:1032A000655F696E74657276616C2C7375627361AB
:1032B0006D706C655F636F756E742C73616D706C8F
:1032C000655F305F706F735F302C006D696C6C6987
:1032D000732C6865616465722C4750535F45706F4D
:1032E00063685F54696D652873292C626174745634
:1032F0002C62617474502C736F6C6172562C7374F1
:10330000617475732C74656D702C68756D2C636FAA
:10331000756E745F302C68735F302C74705F302C66
:10332000746D5F302C61315F302C62315F302C6105
:10333000316D5F302C62316D5F302C77696E645374
:10334000706565645F302C77696E644469725F30C4
:103350002C6C6174735F302C6C61742C6C61746DB7
:103360005F302C6C6F6E735F302C6C6F6E2C6C6FDB
:103370006E6D5F302C6C617473446966665F312CCE
:103380006C61746D446966665F312C6C6F6E73445A
:103390006966665F312C6C6F6E6D446966665F317D
:1033A0002C5353542C706172746974696F6E5F6230
:1033B000696E2C006D696C6C69732C68656164655D
:1033C000722C4750535F45706F63685F54696D6539
:1033D0002873292C62617474562C62617474502CA9
:1033E000736F6C6172562C7374617475732C746591
:1033F0006D702C68756D2C746573745F7061737378
:1034000065642C6E5F617474656D7074732C746583
:1034100073745F6475725F6D696E2C736454657349
:10342000745061737365642C6769745F7368612C91
:103430007379735F6572722C736F6C562C736F6C3B
:10344000492C62617474562C62617474492C6275E3
:1034500073562C627573492C6C6174732C6C617497
:103460002C6C61746D2C6C6F6E732C6C6F6E2C6C8D
:103470006F6E6D2C636E6F5F6D65642C006D696C93
:103480006C69732C6865616465722C69642C706169
:1034900072742C4750535F45706F63685F54696D59
:1034A000652873292C62617474562C62617474509F
:1034B0002C736F6C6172562C7374617475732C74F9
:1034C000656D702C68756D2C636F756E745F302C34
:1034D0006E6F726D5F666163746F722C77696E6474
:1034E00053706565642C77696E644469722C6C61F5
:1034F00074735F302C6C61742C6C61746D5F302C54
:103500006C6F6E735F302C6C6F6E2C6C6F6E6D5FBA
:10351000302C6C6174735F312C6C61746D5F312C75
:103520006C6F6E735F312C6C6F6E6D5F312C53530B
:10353000542C006D696C6C69732C686561646572EC
:103540002C4750535F45706F63685F54696D652801
:1035500073292C62617474562C62617474502C73DC
:103560006F6C6172562C7374617475732C74656D15
:10357000702C68756D2C696E7465726E616C5F6914
:10358000642C6D645F68775F76657273696F6E2C0B
:103590006769745F7368612C6F705F6D6F64652C11
:1035A00073645F63617061636974795F67622C73D0
:1035B000645F757365645F70657263656E742C72A9
:1035C000616D5F7273745F636E742C73645F72738A
:1035D000745F636E742C6770735F7273745F636E75
:1035E000742C6972696469756D5F7273745F636E60
:1035F000742C656E67696E65726F6F6D5F72737440
:103600005F636E742C6578745F68775F7273745F44
:10361000636E742C636F6E6669675F736F75726338
:10362000652C72657365745F736F757263652C7357
:1036300079735F6572722C7379735F6366672C6C44
:103640006174732C6C61742C6C61746D2C6C6F6E76
:10365000732C6C6F6E2C6C6F6E6D2C6578745F685C
:10366000775F6366672C686578006D696C6C697359
:103670002C6865616465722C4750535F45706F63B9
:10368000685F54696D652873292C62617474562CC7
:1036900062617474502C736F6C6172562C73746118
:1036A0007475732C74656D702C68756D2C6C6174F9
:1036B000735F302C6C61745F302C6C61746D5F30A3
:1036C0002C6C6F6E735F302C6C6F6E5F302C6C6F78
:1036D0006E6D5F302C6C6174735F312C6C61745F44
:1036E000312C6C61746D5F312C6C6F6E735F312C9B
:1036F0006C6F6E5F312C6C6F6E6D5F312C6C617412
:10370000735F322C6C61745F322C6C61746D5F324C
:103710002C6C6F6E735F322C6C6F6E5F322C6C6F23
:103720006E6D5F322C6C6174735F332C6C61745FEF
:10373000332C6C61746D5F332C6C6F6E735F332C44
:103740006C6F6E5F332C6C6F6E6D5F332C6C6174BD
:10375000735F342C6C61745F342C6C61746D5F34F6
:103760002C6C6F6E735F342C6C6F6E5F342C6C6FCF
:103770006E6D5F342C686578006D696C6C69732CB4
:103780006865616465722C4750535F45706F63686C
:103790005F54696D652873292C62617474562C62BC
:1037A000617474502C736F6C6172562C73746174F5
:1037B00075732C74656D702C68756D2C636F756EE8
:1037C000745F302C68735F302C74705F302C746DB4
:1037D0005F302C61315F302C62315F302C61316D94
:1037E0005F302C62316D5F302C636F756E745F31AA
:1037F0002C68735F312C74705F312C746D5F312CC9
:1038000061315F312C62315F312C61316D5F312C60
:1038100062316D5F312C77696E6453706565645FEA
:10382000302C77696E644469725F302C77696E64FE
:1038300053706565645F312C77696E644469725FAB
:10384000312C6C6174735F302C6C61742C6C6174FE
:103850006D5F302C6C6F6E735F302C6C6F6E2C6CE8
:103860006F6E6D5F302C6C617473446966665F3196
:103870002C6C61746D446966665F312C6C6F6E737D
:10388000446966665F312C6C6F6E6D446966665F75
:10389000312C5353542C686578002D2C2D2C2D2C55
:1038A0002D2C2D004552524F52005741524E004987
:1038B0004E464F004445425547006D696C6C697334
:1038C0002C747970652C6D657373616765006C6F1E
:1038D0006E2077726170206572726F7220776865F2
:1038E0006E20616464696E67204C61744C6F6E5326
:1038F0000077726170206C6F6E2C2073686F756C2E
:103900006420626520756E726561636861626C65D2
:10391000004572726F722C206465677369676E2050
:1039200073686F756C6420616C77617973203D3DBD
:10393000206D696E5369676E2100687350617274FF
:103940005F252C746D506172745F252C61316D5050
:103950006172745F252C62316D506172745F252C29
:1039600000006D65645F636E74252C6D65645F6D2A
:1039700065616E5F737464252C6D65645F73746438
:103980005F737464252C0000737A7A5F252C613193
:103990005F252C62315F252C61325F252C62325FFE
:1039A000252C0000494E464F202D2000207C7C20F5
:1039B00000207C2073702000207C2068702000494B
:1039C0004E464F202D2000207C7C2000207C207340
:1039D000702000207C206870200045787465726E2D
:1039E000616C20687720617661696C61626C653A10
:1039F000200045787465726E616C2068772061766E
:103A000061696C61626C65206275742052414D2061
:103A10006661696C696E672120536B697070696EAD
:103A20006720696E6974004E6F2065787465726EE8
:103A3000616C2068617264776172652E0042726900
:103A400064676520696E697469616C697A65640090
:103A500042726964676520696E6974206661696C89
:103A60006564005374617274696E672042726964A0
:103A700067652053656C66205465737400496E69F0
:103A80007469616C697A696E6720427269646765FE
:103A9000006E6F206272696467654D444D65737393
:103AA00061676553656E6465722070747220746F0F
:103AB00020696E69742042726964676521006E6FC7
:103AC00020427269646765436D642070747220746B
:103AD0006F20696E697420427269646765210053C2
:103AE000535420696E697469616C697A6564005326
:103AF000535420696E6974206661696C656400576F
:103B000044205245534554204641494C45440057B2
:103B10004420464F5243494E472053595354454D34
:103B200020524553455400485720574420616C7239
:103B3000656164792064697361626C6564004857EB
:103B40002057442064697361626C65640046414B90
:103B50004520485720574420616C72656164792084
:103B6000656E61626C65640046414B452048572094
:103B7000574420656E61626C656400485720574465
:103B800020616C726561647920656E61626C656448
:103B900000485720574420656E61626C6564007769
:103BA0006420756E736572766963656420666F72F2
:103BB00020256C7500493243207363616E20636F6A
:103BC0006D706C6574652E004E6F20493243206421
:103BD00065766963657320666F756E642E00646533
:103BE0007669636520666F756E642061743A2000A3
:103BF0005363616E6E696E6720693263206275730C
:103C000020666F7220646576696365732E2E2E00C0
:103C10005353543A2000537769746368206F666683
:103C2000207768696C65206368617267696E672ECA
:103C3000004F4646004F4E0068616C6C20737769F8
:103C400074636820006D696C6C69732C7373740005
:103C50005265696E697469616C697A696E67204939
:103C6000324320425553004932432074696D656FD9
:103C70007574207265736574202D20485455323157
:103C800044207265616454656D706572617475720B
:103C900065005457492054696D656F7574204572ED
:103CA000726F72202D204854553231442072656164
:103CB0006454656D706572617475726500526569F2
:103CC0006E697469616C697A696E67204932432054
:103CD0004255530049324320656E64206572726F0D
:103CE00072207265736574202D204854553231441A
:103CF000207265616454656D70657261747572657A
:103D00003A200054574920656E64206572726F72C4
:103D1000202D204854553231442072656164546529
:103D20006D7065726174757265005265696E697453
:103D300069616C697A696E67204932432042555344
:103D4000004932432074696D656F75742072657324
:103D50006574202D204854553231442072656164C9
:103D600048756D6964697479005457492054696DC8
:103D7000656F7574204572726F72202D20485455FE
:103D8000323144207265616448756D696469747983
:103D9000005265696E697469616C697A696E672041
:103DA000493243204255530049324320656E642016
:103DB0006572726F72207265736574202D2048548D
:103DC00055323144207265616448756D6964697467
:103DD000793A200054574920656E64206572726FED
:103DE00072202D2048545532314420726561644858
:103DF000756D6964697479004552524F52202D20C7
:103E000000207C7C2000207C2073702000207C20FF
:103E10006870200053657474696E6720746F207237
:103E2000756E206D6F64652100696E76616C6964E2
:103E3000204F50204D4F444520696E20454550523B
:103E40004F4D213A200050415353454400454550C1
:103E5000524F4D205245494E495449414C495A45CB
:103E600044004641494C454400454550524F4D2081
:103E7000434845434B3A2000496E20454550524F38
:103E80004D20494E49543A20005741524E202D2092
:103E900000207C7C2000207C2073702000207C206F
:103EA000687020004552524F52202D2000207C7C0B
:103EB0002000207C2073702000207C20687020006F
:103EC0004552524F52202D2000207C7C2000207C27
:103ED0002073702000207C20687020004D617820C5
:103EE000434E4F206368616E6765642066726F6D34
:103EF00020256420746F202564002076643A2531E3
:103F0000396C64002076653A2531396C640020767E
:103F10006E3A2531396C6400206D6167513A253164
:103F2000377500206F6673513A2531376400206D74
:103F30006167493A2531377500206F6673493A2524
:103F4000313764003000002000205369676E616CD7
:103F500020537472656E677468733A2000206E7522
:103F60006D53617473547261636B65643A25377580
:103F700000206E756D53617473557365643A253115
:103F800030750020617667536967537472656E6798
:103F900074683A25377500206A616D537461743A0C
:103FA0002531347500206A616D496E643A253135DA
:103FB00075002061506F7765723A253135750020A4
:103FC000615374617475733A2531347500206167EB
:103FD00063436E743A2531357500206E6F697365E1
:103FE0005065724D733A2531317500475053204D5D
:103FF0006F6E69746F7220446174613A00300025FD
:10400000752C25752C25752C25752C25752C25755D
:104010002C25642C25752C25642C25752C256C6489
:104020002C256C642C256C642C25752C25752C2571
:10403000750047505320756E68616E646C6564202E
:104040006D657373616765207374617465002530F5
:10405000325820004572726F72204E4D4541206DDE
:104060006573736167653A2000496E205364477039
:10407000733A3A46696E644D657373616765202DC6
:10408000206D6573736167652073697A6520657853
:104090006365656465642E004750532042696E6114
:1040A000727920636D64206661696C65642C20728E
:1040B00065747279696E672E0055424C4F582042E4
:1040C000696E617279206C656E677468206D6973C2
:1040D0006D6174636821004750532075706461748A
:1040E00065207374617465206572726F722C20662E
:1040F0006C757368696E672E00496E76616C6964D1
:10410000204E4D4541206D6573736167652E002C0F
:10411000252E33662C256C752C256C642C256C643F
:1041200000256C752E253032752C25642C256C6489
:104130002C25642C256C640025303258004E6176A5
:10414000507674004E6176507674004D6F6E48570D
:1041500032004D6F6E485732005376537461747558
:1041600073005376537461747573004D6F6E4857C6
:10417000004D6F6E48570047707352617465004779
:1041800070735261746500506F727452617465008F
:10419000506F72745261746500506F7765724D6F25
:1041A00064650053656E64506572696F646963008D
:1041B00053656E64506572696F64696300436F672D
:1041C00046696C7400436F6746696C74004E617693
:1041D00035004E6176350047474100474741005A58
:1041E0004441005A44410056544700565447004742
:1041F0005356004753560047534100475341004729
:104200004C4C00474C4C00534241530053424153E5
:10421000004366674974666D004366674974666D5E
:1042200000416E744374726C00416E744374726C1E
:104230000020636F6E6669672076616C69646174E3
:10424000696F6E206661696C6564210020636F6E22
:1042500066696720636865636B206E6F74207265A2
:104260006365697665642100203A204D69736D614C
:104270007463686564206279746521202020693A3E
:104280002025752020206578703A2025303258206E
:104290002020726563763A202530325800203A207B
:1042A0004D7367206C656E67746873206E6F742041
:1042B000657175616C212020206578704C656E3ABF
:1042C000202575202020726563764C656E3A202586
:1042D000750025303258202530325820253032588C
:1042E00020253032580047505320636F6E6669674F
:1042F0002062696E617269657320696E636F7272A4
:10430000656374213A2030780047505320636F6E04
:104310006669672062696E617269657320636F7296
:1043200072656374004750532076657269667969D7
:104330006E6720636F6E6669672062696E6172697D
:1043400065732E2E2E007365744E61765076744F11
:104350006E007365744D6F6E4857324F6E00736513
:10436000744E61765076744F6E007365744D6F6E47
:104370004857324F6E007365745376537461747589
:10438000734F6E0073657453765374617475734F15
:104390006E203173007365744D6F6E48574F6E0019
:1043A0007365744D6F6E48574F6E3173004770736D
:1043B000536574526174655F325F35487A00736586
:1043C00074506F7765724D6F646542616C616E63A6
:1043D0006564004750532053657474696E672062AA
:1043E000616C616E63656420706F7765722E007317
:1043F0006574506F7765724D6F646546756C6C00BF
:104400004750532053657474696E672066756C6CF1
:1044100020706F7765722E00477073536574536513
:104420006E64506572696F6469635F5055425830BD
:104430003000477073536574436F6746696C745FEF
:1044400030316D004770735365744E6176355F503F
:104450006F727461626C65004750532053657474C9
:10446000696E6720506F727461626C65206D6F6455
:10447000652E004770735365744E6176355F4169F0
:1044800072626F726E655F3247004750532053650A
:104490007474696E6720416972626F726E655F3213
:1044A00047206D6F64652E004770735365744E61CD
:1044B00076355F416972626F726E655F31470047A2
:1044C00050532053657474696E6720416972626F3E
:1044D000726E655F3147206D6F64652E0073657481
:1044E0004747414F6666007365745A44414F66669C
:1044F000007365745654474F66660073657447537E
:10450000564F6666007365744753414F6666007385
:104510006574474C4C4F6666007365745342415353
:104520004F6E007365744366674966746D0073650A
:1045300074416E744374726C53657474696E6773FE
:10454000006C6F6164436F6E6669677300636C65CE
:104550006172436F6E6669677300206770732062D3
:10456000696E617279206D6573736167652066613C
:10457000696C656421006D696C6C69732C62696E8D
:10458000617279006D696C6C69732C6E6F6973650B
:104590005065724D732C616763436E742C61537464
:1045A000617475732C61506F7765722C6A616D4907
:1045B0006E642C6A616D537461742C6F6673492C40
:1045C0006D6167492C6F6673512C6D6167512C5674
:1045D0004E286D6D2F73292C5645286D6D2F73292C
:1045E0002C5644286D6D2F73292C617667536967AB
:1045F0006E616C537472656E6774682C5356735F8A
:10460000757365642C5356735F747261636B656474
:104610002C7369676E616C5F737472656E67746822
:1046200073006D696C6C69732C4E4D4541004750A9
:10463000535F45706F63685F54696D652873292CFB
:104640006C617428646567292C6C6174286D696ECF
:104650002A316535292C6C6F6E6728646567292CB3
:104660006C6F6E67286D696E2A31653529006D693A
:104670006C6C69732C4750535F45706F63685F546F
:10468000696D652873292C6C617428646567292C11
:104690006C6174286D696E2A316535292C6C6F6EDA
:1046A0006728646567292C6C6F6E67286D696E2AB0
:1046B000316535292C656C286D292C534F47286DA1
:1046C0006D2F73292C434F47286465672A3130309A
:1046D00030292C766572745F76656C286D6D2F734A
:1046E00029000600140001000000D0080000009618
:1046F00000000700030000000000FFFFFFFFFF00B5
:10470000FFFFC03E0000FFFFFFFF27002300020065
:10471000000006242400FFFF07020000000010270D
:1047200000000500FA00FA0064002C01003C0000C3
:104730000000C80000000000000006242400FFFF65
:10474000060300000000102700000500FA00FA0030
:1047500064002C01000000000000000000000000C8
:10476000000006242400FFFF0003000000001027C3
:1047700000000500FA00FA0064002C0100000000AF
:1047800000000000000000000000FFFFFFFFFF0529
:10479000FFFFFFFFFFFFFFFFFFFFFFFFFFFFFFFF29
:1047A000FFFFFFFFFFFFFFFF0000FFFFFF00000014
:1047B000000006080600900101000100FFFFFFFF56
:1047C000FFFFFFFFFFFF00000686000006860800CF
:1047D0000001000000000000068608000000000044
:1047E00000000000061E140000000000020000008F
:1047F0000000000001320000994C0000FFFFFFFFA5
:10480000FF0000000F07000000000000FFFF000095
:10481000FFFF0000063E3C000020200700081000BB
:10482000010001010101030001000101020408006F
:10483000000001010308100000000101040008004D
:1048400000000103050003000000010506080E003A
:1048500000000101FFFFFFFFFFFFFFFFFFFFFFFF62
:10486000FFFFFFFFFFFFFFFFFFFFFFFFFFFFFFFF58
:10487000FFFFFFFFFFFFFFFFFFFFFFFFFFFFFFFF48
:10488000FFFFFFFFFFFFFFFFFFFFFFFFFFFFFFFF38
:104890000100FF0006090D000000000000000000FC
:1048A0001F1F00001706090D001F1F000000000059
:1048B0000000000000170639080041AC62AD1E235D
:1048C0000000FFFFFFFFFFFFFFFFFF7F0000063933
:1048D0000000061304001F00F0B9FFFFFFFF1F00D8
:1048E000FFFF061300000601020001070601020097
:1048F000F103060102000A0B060102000A0906087C
:10490000000006000000061E000006240000063E0F
:10491000000006010200F00006010200F008060196
:104920000200F00506010200F00306010200F00299
:1049300006010200F00106010200F1000601080074
:104940000107000200000000060108000107003214
:104950000000000006010800F10300010000000053
:1049600006010800F1030032000000000601080003
:104970000A0B000100000000060108000A0B0014E9
:1049800000000000060108000A0900010000000004
:10499000060108000A0900140000000006010800D2
:1049A000F00000000000000006010800F008000010
:1049B0000000000006010800F005000000000000F3
:1049C00006010800F00300000000000006010800D6
:1049D000F00200000000000006010800F0010000E5
:1049E0000000000006010800F100000100000000C6
:1049F0006D696C6C69732C747970652C6D6573735B
:104A0000616765002F5472617368657E31002530DF
:104A100034645F25732E6373760000253034645F41
:104A200025732E6373760000253034645F25732E62
:104A30006373760000534420636170616369747925
:104A400020636865636B2064697361626C65642EC2
:104A500000534420636172642066756C6C210053BE
:104A60004420252E306625252066756C6C00534445
:104A700020667265653A20256C75204D42005344CE
:104A80002063617061636974793A20256C75204DEB
:104A900042005344206361706163697479206368E4
:104AA00065636B206661696C65642E007465737460
:104AB00066696C652E7478740050415353454420E8
:104AC000414C4C205445535453000077726974652F
:104AD000206661696C656420746F202573007772AD
:104AE000697465206661696C656420746F20257344
:104AF00000686578004361726420485720666169E8
:104B00006C7572652C2044652D696E697420534460
:104B10002043617264210043616E2774206F7065C9
:104B20006E2066696C65213A202573002573206F1D
:104B300070656E656420696E20256C75004F706528
:104B40006E696E672066696C652E2E2E20257300B7
:104B500025732063726561746564004661696C65E4
:104B60006420746F2077726974652068656164657C
:104B70007220746F21203A2025730066696C6520CD
:104B8000637265617465206661696C656421203AB1
:104B9000202573004372656174696E67206E6577C6
:104BA000206C6F672066696C653A2025730064612C
:104BB000746146696C65207374696C6C206F7065F4
:104BC0006E2C20636C6F73696E673A202573002525
:104BD000732073657373696F6E4964206368616ED7
:104BE0006765642066726F6D20257520746F2025BF
:104BF000750053442072772074657374207061735C
:104C00007365642E0053442072772074657374209A
:104C10006661696C656421006E6F206163746976FA
:104C2000652074696D6572732C2063616E27742032
:104C300064656C6574652E0073696D706C652074B5
:104C4000696D65722064656C65746520696E646564
:104C500078206F7574206F662072616E67652E0014
:104C600073696D706C652074696D6572206E6F205C
:104C70006672656520736C6F74732E005344412017
:104C800064617461206C696E652068656C64206C79
:104C90006F770053434C20636C6F636B206C696EBD
:104CA000652068656C64206C6F7720627920736C76
:104CB00061766520636C6F636B20737472657463D7
:104CC000680053434C20636C6F636B206C696E65A6
:104CD0002068656C64206C6F770044504D207374BD
:104CE00061747573004368617267652073746174E1
:104CF0007573004661756C742072656700425120BF
:104D0000737461747573207265670062757349000E
:104D100062757356006261747449006261747456FE
:104D200000736F6C4900736F6C5600706F7765721B
:104D300044617461207C2025533A20257500706FF2
:104D400077657244617461207C2025533A20252EBA
:104D500032660053797374656D2063757272656E87
:104D600074206F7574206F662073706563213A201C
:104D7000252E32660053797374656D20766F6C74DE
:104D8000616765206F7574206F662073706563219D
:104D90003A20252E3266006261747420766F6C743E
:104DA0006167652068696768206F7574206F662089
:104DB00073706563213A20006261747420766F6CB1
:104DC00074616765206C6F773A20252E3266005338
:104DD0006F6C617220766F6C74616765206C6F77A1
:104DE0003A20252E3266004572726F72207265611C
:104DF00064696E67206D6F6E69746F722064617490
:104E0000612100627573206D6F6E69746F7220721C
:104E100065636F76657265642C20636F6E66696783
:104E2000757265642E0063686172676572207265D1
:104E3000636F76657265642C20636F6E6669677553
:104E40007265642E004572726F7220636F6E6669C0
:104E5000677572696E6720706F776572206D6F6E0F
:104E600069746F727321004572726F7220636F6E86
:104E70006669677572696E672063686172676572DB
:104E800021006D696C6C69732C4750535F45706FDE
:104E900063685F54696D652873292C736F6C562C99
:104EA000736F6C492C62617474562C62617474491E
:104EB0002C627573562C627573492C6D7070742C4E
:104EC000537461745F5245472C4661756C745F5230
:104ED00045472C68756D2C74656D70004251202D0E
:104EE000206E6F2062797465732072657475726EBE
:104EF0006564005265696E697469616C697A696E8E
:104F00006720493243204255530049324320746997
:104F10006D656F7574207265736574202D20425124
:104F20002072656164526567005457492054696D69
:104F3000656F7574204572726F72202D204251206A
:104F400072656164526567005265696E6974696172
:104F50006C697A696E672049324320425553004993
:104F6000324320656E64206572726F7220726573C1
:104F70006574202D20425120726561645265673A44
:104F8000200054574920656E64206572726F72204C
:104F90002D20425120726561645265670052656937
:104FA0006E697469616C697A696E67204932432061
:104FB0004255530049324320656E64206572726F1A
:104FC00072207265736574202D20425120736574C0
:104FD0005265673A200054574920656E6420657217
:104FE000726F72202D2042512073657452656700E4
:104FF000696E61206E6F2072656164427974653AF2
:1050000020005265696E697469616C697A696E67BE
:105010002049324320425553004932432074696D80
:10502000656F7574207265736574202D20494E413B
:105030002072656164427974657300545749205445
:10504000696D656F7574204572726F72202D2049ED
:105050004E412072656164427974657300526569DE
:105060006E697469616C697A696E672049324320A0
:105070004255530049324320656E64206572726F59
:1050800072207265736574202D20494E412072652F
:10509000616442797465733A200054574920656E03
:1050A00064206572726F72202D20494E4120726516
:1050B0006164427974657300636F6E666967207618
:1050C0006572696679206661696C20696E61333248
:1050D00032312E00693263206572726F72207365FF
:1050E0007474696E6720696E6133323231206D6F7E
:1050F00064652E005265696E697469616C697A69CC
:105100006E6720493243204255530049324320659F
:105110006E64206572726F72207265736574202DE3
:1051200020494E41207365744D6F64653A200054E8
:10513000574920656E64206572726F72202D204978
:105140004E41207365744D6F6465004272696467F7
:1051500065436D642073656C66207465737420709C
:10516000617373656400427269646765436D6420AE
:1051700073656C6620746573742062797465206D44
:1051800069736D6174636821206578703A202530F9
:10519000325820726563763A2025303258004272C8
:1051A00069646765436D642073656C66207465731C
:1051B0007420696E636F7272656374207061636BD3
:1051C0006574206C656E6774680025303258002560
:1051D0003032582000425F434D4420496E76616C66
:1051E0006964206279746520666F756E642120524F
:1051F000783A2000427269646765434D4420696EC5
:1052000076616C696420636F6D6D616E6420627994
:1052100074653A202530325800427269646765200F
:10522000434D442074696D656F75742100425F437E
:105230004D4420527820257500AA020901EFCDAB1C
:105240008967452365706F63682C6C696E6B2C6C85
:105250006F6720747970652C646174610000C0C14F
:1052600001C30302C2C60607C705C5C404CC0C0DA2
:10527000CD0FCFCE0E0ACACB0BC90908C8D8181952
:10528000D91BDBDA1A1EDEDF1FDD1D1CDC14D4D5B2
:1052900015D71716D6D21213D311D1D010F0303142
:1052A000F133F3F23236F6F737F53534F43CFCFDE2
:1052B0003DFF3F3EFEFA3A3BFB39F9F83828E8E972
:1052C00029EB2B2AEAEE2E2FEF2DEDEC2CE42425F2
:1052D000E527E7E62622E2E323E12120E0A0606162
:1052E000A163A3A26266A6A767A56564A46CACAD22
:1052F0006DAF6F6EAEAA6A6BAB69A9A86878B8B9D2
:1053000079BB7B7ABABE7E7FBF7DBDBC7CB4747531
:10531000B577B7B67672B2B373B17170B050909181
:10532000519353529296565797559594549C5C5D61
:105330009D5F9F9E5E5A9A9B5B99595898884849F1
:10534000894B8B8A4A4E8E8F4F8D4D4C8C44848571
:105350004587474686824243834181804000C18120
:105360004001C0804101C0804100C1814001C08036
:105370004100C1814000C1814001C0804101C08025
:105380004100C1814000C1814001C0804100C18114
:105390004001C0804101C0804100C1814001C08006
:1053A0004100C1814000C1814001C0804100C181F4
:1053B0004001C0804101C0804100C1814000C181E5
:1053C0004001C0804101C0804100C1814001C080D6
:1053D0004100C1814000C1814001C0804101C080C5
:1053E0004100C1814000C1814001C0804100C181B4
:1053F0004001C0804101C0804100C1814000C181A5
:105400004001C0804101C0804100C1814001C08095
:105410004100C1814000C1814001C0804100C18183
:105420004001C0804101C0804100C1814001C08075
:105430004100C1814000C1814001C0804101C08064
:105440004100C1814000C1814001C0804100C18153
:105450004001C0804101C0804100C181407C3C3E90
:105460005E2B3D3F2F5B5D3B2C2A225C0044454276
:105470005547202D2000207C7C2000207C2073704C
:105480002000207C20687020004445425547202D94
:105490002000207C7C2000207C2073702000207C59
:1054A000206870200049534244204347534E2070E7
:1054B000726F746F636F6C206572726F7200495304
:1054C00042442077616974204347534E20666169E6
:1054D0006C65640041542B4347534E0D000D0A0088
:1054E0003E3E2000506F776572696E67206F66667A
:1054F00020526F636B424C4F434B2E2E2E210D0AD0
:1055000000506F776572696E67206F6E20526F630F
:105510006B424C4F434B2E2E2E210D0A005D005B3B
:105520006373756D3A005D005B42696E617279204C
:1055300073697A653A0041542B53424452420D003C
:10554000495342442053424449582070726F746F4B
:10555000636F6C206572726F72004953424420770A
:10556000616974205342444958206661696C6564DE
:105570000041542B53424449580D004953424420A2
:10558000646F534244495800495342442063616E5A
:1055900063656C2064756520746F20726573657433
:1055A0002E003C3C200041542A460D0041542D4D14
:1055B0005353544D0D0049534244204353512070DE
:1055C000726F746F636F6C206572726F72004953F3
:1055D0004244207761697420435351206661696CAD
:1055E00065640041542B4353510D005342444958C4
:1055F0002073656E64206661696C65642C20746933
:105600006D656F757421004641494C004953424411
:105610002043535120776169742072657472792038
:1056200063616E63656C6C65642E00534244495837
:10563000206E6F207369676E616C2C2072657472C6
:10564000792E0049534244205342444958207761FF
:1056500069742072657472792063616E63656C6C25
:1056600065642E005342444958206661696C656444
:105670002C207265747279696E672E2E2E00495344
:10568000424420534244495820666174616C0020B2
:105690006D6F6D736E3A2000206D7373746D2072A0
:1056A0006574726965733A2000207472616E736D5F
:1056B000697420726574726965733A20007472614E
:1056C0006E736D69742074696D653A20005355439B
:1056D0004345535300496E636F6D696E67206D6576
:1056E0007373616765210D0A005342444958207362
:1056F000756363657373210D0A000D0A00534244FC
:105700004958204D4F20636F64653A200049534249
:1057100044205342444958206661696C65640049DD
:10572000534244204D535354206661696C656400B4
:105730000D0041542B53424457543D0049534244B9
:105740002077616974204F4B206661696C65642E17
:10575000000D0A00436865636B73756D3A00206243
:10576000797465735D005B00495342442077616939
:1057700074205245414459206661696C656421007A
:105780000D0041542B53424457423D0043616E6E1D
:105790006F742073656E642C2049534244206973F2
:1057A0002061736C65657021004953424420696E25
:1057B0007465726E616C20532F5200496E7465726D
:1057C0006E616C426567696E3A20737563636573D9
:1057D00073210D0A004154264B300D0041542644DC
:1057E000300D00415445310D004E6F206D6F6465E2
:1057F0006D2064657465637465642E0D0A00415400
:105800000D0043616C6C696E6720696E7465726E21
:10581000616C426567696E0D0A006D696C6C697335
:105820002C7472616E735F737461742C7472616E28
:10583000736D69745F74696D652C7472616E735FEA
:10584000726574726965732C6D7373746D5F7265C4
:1058500074726965732C6D6F6D736E0073616D701A
:105860006C65207175657565206572726F72203088
:105870007830310073616D706C6520717565756588
:10588000206572726F7220307831300073616D70F4
:105890006C65207175657565206572726F72203058
:1058A00078303800256C752C256C752E25303275B6
:1058B0002C00256C642C256C642C256C642C256CC8
:1058C000642C00256C752C256C752E253032752CBA
:1058D0000046696C746572204E614E2100496E74F9
:1058E0006572706F6C617465642073616D706C6556
:1058F0002061743A20256C752E25303275004241A6
:10590000442054494D45424153452066726F6D20F5
:10591000256C752E2530327520746F20256C752E00
:105920002530327500455843454544204D415820A7
:105930004741503A2064743A20252E326620667220
:105940006F6D20256C752E2530327520746F2025E3
:105950006C752E25303275005350494B452053410C
:105960004D504C452061743A20256C752E253032FF
:105970007500534D414C4C2053414D504C452050E7
:105980004552494F443A2066726F6D20256C752E42
:105990002530327520746F20256C752E25303275B8
:1059A00000535455434B204241434B20494E205411
:1059B000494D4520256C752E2530327520746F2099
:1059C000256C752E25303275004241434B20494EDF
:1059D0002054494D4520256C752E25303275207494
:1059E0006F20256C752E25303275006D696C6C69E1
:1059F000732C4750535F45706F63685F54696D65E2
:105A00002873292C6F757478286D6D292C6F757427
:105A100079286D6D292C6F75747A286D6D292C6F1E
:105A200075746E286D6D29006D696C6C69732C47F7
:105A300050535F45706F63685F54696D65287329C3
:105A40002C6F757478286D6D292C6F757479286D9D
:105A50006D292C6F75747A286D6D29006D696C6CD9
:105A600069732C4750535F45706F63685F54696D6D
:105A7000652873292C646D78286D6D292C646D79E7
:105A8000286D6D292C646D7A286D6D292C646D6EDE
:105A9000286D6D292C646D6D78286D6D292C646DD1
:105AA0006D79286D6D292C646D6D7A286D6D292CAA
:105AB000646D6D6E286D6D292C6D78286D6D292CA7
:105AC0006D79286D6D292C6D7A286D6D292C6D6E80
:105AD000286D6D29000000803F000000400000801C
